:100000000C9450010C9478010C9478010C947801B4
:100010000C9478010C9478010C9478010C94D31111
:100020000C9478010C9478010C9478010C9478016C
:100030000C9478010C9478010C9478010C9478015C
:100040000C946D0A0C9478010C947B120C9455124C
:100050000C9478010C9478010C9478010C9478013C
:100060000C94AD120C94780135035A0324037203E7
:10007000A9039A038F039A039A039A03A9034403DB
:100080004E414E494E495459494E46CDCCCC3D0A7D
:10009000D7233C17B7D13877CC2B329595E6241F60
:1000A000B14F0A000020410000C84200401C462019
:1000B000BCBE4CCA1B0E5AAEC59D7400407A10F3EC
:1000C0005A00A0724E18090010A5D4E80000E87686
:1000D00048170000E40B54020000CA9A3B000000DD
:1000E000E1F505000080969800000040420F0000F6
:1000F00000A08601000000102700000000E80300B7
:100100000000006400000000000A00000000000180
:1001100000000000002C76D888DC674F0823DFC180
:10012000DFAE59E1B1B796E5E3E453C63AE651993B
:100130007696E8E6C28426EB898C9B62ED407C6F64
:10014000FCEFBC9C9F40F2BAA56FA5F490055A2A1B
:10015000F75C936B6CF9676DC11BFCE0E40D47FE27
:10016000F520E6B500D0ED902E030094357705001C
:1001700080841E080000204E0A000000C80C3333A3
:1001800033330F986E12831141EF8D2114893BE6B2
:100190005516CFFEE6DB18D1844B381BF77C1D903B
:1001A0001DA4BBE424203284725E228100C9F124A4
:1001B000ECA1E53D277D0022002273747261746515
:1001C0006779223A2200222C0022636F6E74726FCC
:1001D0006C6C6572223A2200222C002273656E73C9
:1001E0006F72223A2200222C002268696768426FEF
:1001F000756E64617279223A2200222C00226C6FA3
:1002000077426F756E64617279223A2200222C0067
:100210002273656E736F725F74797065223A220083
:100220007B00506172736520696E20737472696E11
:1002300067202E2E2E20006F707420696E2073743C
:1002400072696E67202E2E2E200000000000240010
:1002500027002A0000000000250028002B000404CD
:10026000040404040404020202020202030303035E
:10027000030301020408102040800102040810203A
:100280000102040810200000000800020100000321
:100290000407000000000000000002006C1DFC1EAE
:1002A00011241FBECFEFD8E0DEBFCDBF25E0A2EF07
:1002B000B2E001C01D92A93DB207E1F712E0A0E053
:1002C000B1E0E4E8F1E502C005900D92A23FB1076C
:1002D000D9F711E0CFE4D1E004C02197FE010E94DC
:1002E0004325CE34D107C9F70E943E180C94B52897
:1002F0000C940000282F8830A8F4672B99F481E033
:1003000090E002C0880F991F2A95E2F7809590959A
:100310002091CE053091CF05822393239093CF0572
:100320008093CE0508958F929F92AF92BF92CF9205
:10033000DF92EF92FF920F931F93CF93DF9383305F
:1003400008F084C0982F990F990F990F58E0952EB7
:10035000990E96E1991510F446E1942E8B01D82F51
:10036000C82ECC0CCC0CCC0CC0E0882483945B0150
:10037000BB24C91430F58EEF8C0D8231F8F44C2D6E
:1003800050E0FA01EB56FB4F20812230B8F4882D63
:1003900090E08A219B21DD24D394009709F4D12C8D
:1003A0007A01EE0CFF1C213009F040C0C829F7018A
:1003B000E555FB4F8D2D90E091838083880CC3948D
:1003C000D8CFD11108C0F8946BB106270C7FC02399
:1003D000C627CBB929C0D130D1F40C23F89495B1FC
:1003E0008C2F8F7380958923902F9F73892B85B9CC
:1003F00098B1C295C695C695C370C0958C2F8923B8
:100400000295069506950370C02FC82B0CC0CF70BF
:10041000F89488B16C2F660F660F60956823C0232F
:10042000CC0FCC0FC62BC8B9789410C0892B09F417
:10043000BECFF701E555FB4F80819181019709F40B
:10044000B6CF62E08C2D0E94B60EB1CFDF91CF9176
:100450001F910F91FF90EF90DF90CF90BF90AF90E2
:100460009F908F900895EF92FF921F93CF93DF9309
:10047000863108F071C0E82EF12CF701EB56FB4FE6
:100480009081933009F068C0EB01182F833049F058
:100490008BEF8E0D823028F087EF8E0D833008F0C1
:1004A00054C061E0812F0E94B60E209711F460E0E5
:1004B00004C0CF3FD10529F461E0812F0E94690E6D
:1004C00044C0F701EA57FD4FE491E330F9F048F4F6
:1004D000E130B9F0E230A1F584B5806284BDC8BDD9
:1004E00034C0E730E9F0E83019F1E43049F58091A3
:1004F0008000806280938000D0938B00C0938A003C
:1005000024C084B5806884BDC7BD1FC080918000B1
:10051000806880938000D0938900C093880015C0C4
:100520008091B00080688093B000C093B3000DC08C
:100530008091B00080628093B000C093B40005C089
:10054000C038D1050CF0B8CFB2CFF701EE0FFF1FC6
:10055000E555FB4FD183C083DF91CF911F91FF9071
:10056000EF9008959EEF980F923180F4E82FF0E01D
:10057000DF01AB56BB4F9C91913041F4EE0FFF1F52
:10058000E555FB4F608371830C94690E0895CF92FB
:10059000DF92EF92FF920F931F93CF93DF93C82EBA
:1005A000D12CE601CE5EDB4FFE01ED57FF4F90816F
:1005B0009F3709F4CEC07B01182F02EF080F0830D7
:1005C00058F461E070E022E0E216F10411F060E01E
:1005D00070E0802F0E947A018EEF810F823118F532
:1005E000E12FE695E695E695912F9770F0E0E45FB0
:1005F000FC4FE114F10421F02BE0E216F10449F480
:1006000021E030E001C0220F9A95EAF79081292B72
:1006100009C021E030E001C0220F9A95EAF7209549
:10062000908129232083CC0CDD1CF601E555FB4F7E
:10063000118210829CE0E916F10408F07BC0F701FA
:10064000EC5CFF4F0C944325083008F082C08231E7
:1006500020F460E0812F0E94B60ECD57DF4F8881D5
:100660008F3709F476C082E063C0823108F071C030
:1006700060E0812F0E94B60ECD57DF4F88818F3703
:1006800009F467C0188265C0823108F062C062E078
:10069000812F0E94B60ECD57DF4F88818F3711F022
:1006A0008BE08883F601E555FB4F81E090E0918374
:1006B00080834FC0823108F04CC0FE01ED57FF4FE0
:1006C0008081833021F460E0812F0E94690E61E017
:1006D000812F0E94B60ECD57DF4F88818F37C9F129
:1006E00081E026C0133041F08BEF810F823020F083
:1006F00087EF810F833068F561E0812F0E94B60E8D
:1007000061E0812F0E94B60E60E0812F0E94690E89
:10071000CD57DF4F88818F37E1F083E009C0125158
:100720001230B8F4CD57DF4F88818F3791F086E0D3
:1007300088830FC08CE591E00E94930BC701DF9185
:10074000CF911F910F91FF90EF90DF90CF900C947D
:100750007B0BDF91CF911F910F91FF90EF90DF9076
:10076000CF900895FF920F931F93CF93DF9300D004
:10077000CDB7DEB7082F10E0F801E45FFC4F9081A1
:10078000F62EF92200531A4F411104C0F80190814E
:10079000F91611F12F2D30E03A832983A0915204EC
:1007A000B09153041097B1F0682F6F706069ED91AC
:1007B000FC9111970190F081E02DCD01099522E087
:1007C00030E0AE014F5F5F4F62E070E082E594E0A1
:1007D0000E94D713F801F0820F900F90DF91CF9114
:1007E0001F910F91FF900895833020F5282F30E05E
:1007F000F901E15FFC4F6083672BE1F0F901E45FF1
:10080000FC4F9081811103C069B16C7F0FC08130B2
:1008100049F463B136B16F7340E4349F9001112401
:10082000622B04C066B16C7366956695692341E0DE
:100830000C94B20308954F925F926F927F928F92C1
:100840009F92AF92BF92CF92DF92EF92FF920F935F
:100850001F93CF93DF93CDB7DEB7A8970FB6F89469
:10086000DEBF0FBECDBF843009F0BFC57A01C62EF2
:10087000FA018081803109F4F0C1803209F4A1C409
:10088000873009F0B2C561E081810E94B60EF701A0
:100890008480F4E68F9E40011124F7016281CE012D
:1008A00001960E94F40DCE0101960E94B70A2B0119
:1008B0003C01F7016381CE0107960E94F40DCE0141
:1008C00007960E94B70A24E6249D5001259DB00C8E
:1008D0001124A60EB71EF70181819091120189178C
:1008E00021F09F3F09F0B2C104C0EAE9F2E014919F
:1008F00079C080931201EAE9F2E014911F3F09F4F4
:10090000A5C1113009F448C050F1123009F06AC095
:100910001092B0001092B1009091B000926090934C
:10092000B0009091B10091609093B100282F30E019
:10093000F901E25AFD4FE491F0E0EE0FFF1FEC5A8F
:10094000FD4F4591549150935D0540935C05F9012D
:10095000EE58FD4FE491E0935E0512E042C514BCF1
:1009600015BC94B5926094BD95B5916095BD282F46
:1009700030E0F901E25AFD4FE491F0E0EE0FFF1F85
:10098000EC5AFD4F45915491F901EE58FD4FE49119
:10099000E093F30210E025C51092800010928100D0
:1009A0009091810098609093810090918100916076
:1009B00090938100282F30E0F901E25AFD4FE49135
:1009C000F0E0EE0FFF1FEC5AFD4F45915491F901F5
:1009D000EE58FD4FE491E093F20261E00E94B60E02
:1009E00011E0B2C017FD32C161E00E94B60E812F46
:1009F0008D7F09F0A9C02501612C712C60E072E1A6
:100A00008AE790E0A30192010E9424252DA33EA332
:100A10004FA358A769017A01F1E0CF1AD108E10884
:100A2000F1082FEFC216D104E104F10409F008F433
:100A30004BC060E472E48FE090E0A30192010E9459
:100A4000242569017A0181E0C81AD108E108F1087A
:100A5000123001F5EFEFCE16D104E104F10409F0F4
:100A600008F453C460E970ED83E090E0A3019201C3
:100A70000E94242569017A01F1E0CF1AD108E1082A
:100A8000F1082FEFC216D104E104F10409F030F5AA
:100A900083E053C03FEFC316D104E104F104B1F089
:100AA000A8F068E478EE81E090E0A30192010E9452
:100AB000242569017A0181E0C81AD108E108F1080A
:100AC000112309F424C484C481E001C082E011111F
:100AD00034C095B5987F892B85BD6FC068E478EEEA
:100AE00081E090E0A30192010E94242569017A012E
:100AF000F1E0CF1AD108E108F1082FEFC216D104B6
:100B0000E104F10409F008F4FEC364E274EF80E04C
:100B100090E0A30192010E94242569017A01E1E09D
:100B2000CE1AD108E108F108FFEFCF16D104E10495
:100B3000F10411F008F020C485E09091B100987F95
:100B4000892B8093B10039C02501612C712C60E0A4
:100B500072E18AE790E0A30192010E9424256901D5
:100B60007A01E1E0CE1AD108E108F108C114D104FC
:100B7000F1E0EF06F10488F068E478EE81E090E0BF
:100B8000A30192010E94242569017A0181E0C81A1B
:100B9000D108E108F10883E001C081E0113069F477
:100BA00090918100987F892B80938100811491041A
:100BB00039F42FEF3FEFA90128C08114910469F0A7
:100BC0009501220F331FD4010E94492528EE33E0FE
:100BD00040E050E00E94022503C02FEF3FEFA90143
:100BE000113099F0123019F1111130C0C7BC2093A7
:100BF000F8023093F9024093FA025093FB0280917D
:100C00006E00826080936E0021C0D0928900C092F5
:100C100088002093F4023093F5024093F60250933B
:100C2000F70280916F00826080936F000FC0C092C6
:100C3000B30020935F0530936005409361055093A6
:100C4000620580917000826080937000CE010796EB
:100C50000E94B011CE01019653C310920001FA0117
:100C600011811130E9F40E94FA15082FF92E80EF56
:100C70000E94210C84E00E94210C80E10E94210C42
:100C80008F2D0E94210C802F0E94210C87EF0E9443
:100C9000210C8DE691E00E94930B10930001A5C3F7
:100CA000123009F046C0FA0113814281A12FB0E051
:100CB000FCE34F9FA00DB11D112428EE33E00E94EC
:100CC0004925611571058105910549F06093010180
:100CD0007093020180930301909304010EC080E79A
:100CE00097E1A0E0B0E08093010190930201A0930E
:100CF0000301B093040116E040E0642F86E190E028
:100D00000E948F24612F87E190E00E948F240E942F
:100D1000FA15182F092F80EF0E94210C84E00E9401
:100D2000210C80E10E94210C802F0E94210C812F38
:100D300010C2133009F001C261ED71E0CE014F968F
:100D40000E94BE1187010E5F1F4FD12CC8018E1962
:100D50009F098C159D057CF4F80181918F01898391
:100D60001A8241E050E0BE016F5F7F4FCE014F9687
:100D70000E94BE10EBCFBE01615E7F4FCE0149964F
:100D80000E94B51160E771E0CE0143960E94BE114A
:100D90008D8D9E8D892B69F0098D1A8D6DE370E024
:100DA000C8010E947128009721F09C01201B310B83
:100DB00002C02FEF3FEF40E050E0BE01675E7F4F83
:100DC000CE010D960E94C20A1A8219821C821B82D1
:100DD0001E821D826CE2F62EFF821886BE01695FBC
:100DE0007F4FCE0101960E948211BE01635F7F4F4B
:100DF000CE0101960E944E118C01FF82188641E0BF
:100E000050E0BE01695F7F4F0E94BE10811103C098
:100E1000C8010E94EC10B801CE0107960E94B511DE
:100E2000CE0101960E94B0110D8D1E8D0115110588
:100E300069F0E98CFA8C6DE370E0C7010E947128BB
:100E4000009721F0AC014E195F0902C04FEF5FEF30
:100E50004F5F5F4F9801BE01675E7F4FCE010196E5
:100E60000E94C20ABE01695F7F4FCE0143960E9475
:100E70005E107C018133910509F455C014F5429749
:100E800009F449C083E1E816F1044CF4E114F104DB
:100E9000D9F1E6E0EE16F10409F429C111C1FEE131
:100EA000EF16F104C1F12BE2E216F10409F008C1DA
:100EB0000E945E0C10924D036DE473E084EA91E0B1
:100EC0004EC08834910509F412C189E4E816F10492
:100ED0005CF4E8E3EE16F10409F444C0F3E4EF1621
:100EE000F10409F404C1ECC020E5E216F10409F4B0
:100EF00052C035E5E316F10409F4DEC08BE4E816D0
:100F0000F10409F0DDC0F3C0CE0101960E94B70ADA
:100F100060931101ECC089819A81009709F4E7C0C0
:100F20000E94331FE4C00D811E810115110519F4C3
:100F30001092610310C00331110510F003E110E0BD
:100F400069817A81A80181E693E00E948C28F801EA
:100F5000EF59FC4F108261E673E080E991E00E9456
:100F6000BD15C5C00D811E810115110519F4109222
:100F70004D03BDC00331110510F003E110E069819C
:100F80007A81A8018DE493E00E948C28F801E35B4C
:100F9000FC4F1082ACC043E4C42E43E0D42E00E0EA
:100FA00010E05FE1E52EF12CC7010E948724F601D5
:100FB00081936F01080F111DFFEFEF1AFF0A29E25D
:100FC000E216F10489F789E290E00E9487249801F3
:100FD0003327482F50E02417350729F4811105C025
:100FE0000217130711F00E945E0C80E292E00E944B
:100FF0009D0C80E192E00E949D0C6091430370E0A3
:1010000080E090E04AE00E94190B8DE092E00E949F
:101010009D0C8DEF91E00E949D0C609144037091B6
:101020004503809146039091470342E00E94B80C2B
:101030008AEF91E00E949D0C89EE91E00E949D0C48
:10104000609148037091490380914A0390914B034A
:1010500042E00E94B80C86EE91E00E949D0C8BED60
:1010600091E00E949D0C81E693E00E94070B88EDC1
:1010700091E00E949D0C89EC91E00E949D0C8DE412
:1010800093E00E94070B86EC91E00E949D0C89EB97
:1010900091E00E949D0C60914C0370E080E090E034
:1010A0004AE00E94190B87EB91E00E949D0C85EBB2
:1010B00091E00E949D0C1BC081E08093240317C027
:1010C00087E392E00E949D0CC7010E947B0B82E2A5
:1010D00092E00E949D0C4F89588D6B897C8985E731
:1010E00093E00E94F30E8FEC91E00E94070BCE017B
:1010F00001960E94B011CE0107960E94B011CE0158
:101100000D960E94B011CE0143960E94B011CE01FF
:1011100049960E94B01180EF0E94210C84E00E9449
:10112000210C80E10E94210C83E00E94210C87EFBA
:101130000E94210CCE014F96E3C0143069F480EF79
:101140000E94210C84E00E94210C80E10E94210C6D
:1011500084E00E94210C28C0153051F580EF0E94D8
:10116000210C84E00E94210C80E10E94210C85E08A
:101170000E94210C00E010E08091E2049091E304D1
:101180000817190788F48091DE049091DF04009716
:1011900029F0FC01E00FF11F808101C080E00E9476
:1011A000210C0F5F1F4FE8CF87EF0E94210C05C075
:1011B000163009F01AC10E94111881E080930001D5
:1011C00014C16CE370E080E090E00E94330AD12CFF
:1011D00032E0C31AD108B7016E5F7F4FCE01499646
:1011E0000E94BE1161ED71E0CE0143960E94BE11D6
:1011F00061ED71E0CE010D960E94BE1161ED71E0CE
:10120000CE0107960E94BE1160EF72E0CE010196FA
:101210000E94BE11BE016F5F7F4FCE0149960E94B2
:101220005E107C01CE0101960E94B011970140E052
:1012300050E0BE01675E7F4FCE0101960E94C20A58
:10124000BE016F5F7F4FCE0143960E94E80BCE0137
:1012500001960E94B0118FEFE81AF80A60EF72E071
:10126000CE0101960E94BE118D8D9E8DE816F90665
:1012700080F4098D1A8D69817A81C8018E0D9F1DB8
:101280000E949B28009729F0FC01E01BF10B8F01C5
:1012900002C00FEF1FEFCE0101960E94B01198011E
:1012A000A701BE01675E7F4FCE0101960E94C20A70
:1012B000BE016F5F7F4FCE010D960E94E80BCE01FD
:1012C00001960E94B011A8014F5F5F4F9601BE01C9
:1012D000675E7F4FCE0101960E94C20ACE01019641
:1012E0000E94B011CE0107960E94B011CE010D965A
:1012F0000E94B011CE0143960E94B011CE014996D2
:101300000E94B01172C084E018CC82E016CCFFEFCE
:10131000CF16D104E104F10469F160F162E17AE7EA
:1013200080E090E0A30192010E94242569017A01E6
:1013300081E0C81AD108E108F108EFEFCE16D10418
:10134000E104F104A9F0A0F08DA19EA1AFA1B8A580
:101350003AE0B595A795979587953A95D1F76C01A1
:101360007D0131E0C31AD108E108F10885E0B1CB75
:1013700084E0AFCB83E0ADCB62E17AE780E090E040
:10138000A30192010E94242569017A0181E0C81A13
:10139000D108E108F108FFEFCF16D104E104F10410
:1013A000A9F0A0F08DA19EA1AFA1B8A52AE0B595A6
:1013B000A795979587952A95D1F76C017D01E1E076
:1013C000CE1AD108E108F10887E0B7CB86E0B5CBAB
:1013D000EFEFCE16D104E104F10409F068F684E0E1
:1013E00076CB61E00E94B60E06CBA8960FB6F894B5
:1013F000DEBF0FBECDBFDF91CF911F910F91FF9048
:10140000EF90DF90CF90BF90AF909F908F907F90A4
:101410006F905F904F9008953FB7F8948091390393
:1014200090913A03A0913B03B0913C0326B5A89B51
:1014300005C02F3F19F00196A11DB11D3FBFBA2F66
:10144000A92F982F8827820F911DA11DB11DBC01C6
:10145000CD0142E0660F771F881F991F4A95D1F78B
:1014600008950E9463288F929F92AF92BF92CF926D
:10147000DF92EF92FF926B017C010E940C0A4B01FC
:101480005C01C114D104E104F104F1F00E940C0AE2
:10149000DC01CB0188199909AA09BB09883E934050
:1014A000A105B10570F321E0C21AD108E108F108E5
:1014B00088EE880E83E0981EA11CB11CC114D104D3
:1014C000E104F10419F7DDCFFF90EF90DF90CF90AA
:1014D000BF90AF909F908F9008951F920F920FB67C
:1014E0000F9211242F933F938F939F93AF93BF93AA
:1014F0008091350390913603A0913703B091380362
:101500003091340323E0230F2D3720F40196A11DE1
:10151000B11D05C026E8230F0296A11DB11D209321
:1015200034038093350390933603A0933703B0932D
:1015300038038091390390913A03A0913B03B09115
:101540003C030196A11DB11D8093390390933A038A
:10155000A0933B03B0933C03BF91AF919F918F91B8
:101560003F912F910F900FBE0F901F901895FC0187
:1015700080819181009711F00C94371F60E070E03A
:10158000CB010895BF92CF92DF92EF92FF920F931B
:101590001F93CF93DF937C016B018A01E90124172C
:1015A000350720F4812F8901C42FD82F61ED71E018
:1015B000C7010E94BE11D60114968D919C9115977A
:1015C00008171907C8F48C179D0708F4EC01D60119
:1015D000ED91FC911197EC0FFD1FB08010826D9181
:1015E0007C91600F711FC7010E948211D601ED919D
:1015F000FC91EC0FFD1FB082C701DF91CF911F91CD
:101600000F91FF90EF90DF90CF90BF9008950097DB
:1016100069F0FC0101900020E9F73197AF01481B08
:10162000590BBC0185E793E00C94F30E80E090E049
:1016300008958F929F92AF92BF920F931F93CF9373
:10164000DF93CDB7DEB7A1970FB6F894DEBF0FBE1C
:10165000CDBF19A2423008F44AE08E010F5D1F4F42
:10166000842E912CA12CB12CA50194010E9402255D
:10167000E62FB901CA0101501109EA3014F4E05D06
:1016800001C0E95CD801EC93232B242B252B61F7B7
:10169000C8010E94070BA1960FB6F894DEBF0FBEDB
:1016A000CDBFDF91CF911F910F91BF90AF909F90D1
:1016B0008F900895CF92DF92EF92FF92CF93DF93B6
:1016C0006B017C016DE285E793E00E94860FEC01DF
:1016D00066277727CB016C197D098E099F094AE09F
:1016E0000E94190B8C0F9D1FDF91CF91FF90EF90FF
:1016F000DF90CF900895CF93DF93BC01990F880BB3
:10170000990B97FF03C00E945A0B03C04AE00E9446
:10171000190BEC018FEC91E00E94070B8C0F9D1FC1
:10172000DF91CF910895EF92FF920F931F93CF9384
:10173000DF93FC0101900020E9F731977F01E81A5F
:10174000F90AA0915204B09153041097D1F18C0181
:10175000ED91FC9111970190F081E02D60EFCD01AA
:1017600009958091520490915304DC01ED91FC9114
:101770000190F081E02D61E70995C0E0D0E0EC1622
:10178000FD0669F0A8014C0F5D1F20E030E061E02C
:1017900070E082E594E00E94D7132196F0CF80910B
:1017A000520490915304DC01ED91FC910190F08181
:1017B000E02D67EFDF91CF911F910F91FF90EF9098
:1017C0000994DF91CF911F910F91FF90EF900895B1
:1017D0000F931F93CF93DF938C01EB01FC0180816A
:1017E00091810097B1F0688179816115710579F077
:1017F000428153812C813D814217530740F00E9462
:1018000085288C819D81F8019583848313C00E9473
:10181000142788819981F801918380838A819B8133
:10182000938382838C819D8195838483198218821E
:101830001B821A821D821C82DF91CF911F910F9112
:101840000895A0919004B0919104ED91FC911197AD
:101850000190F081E02D682FCD010994EF92FF9265
:101860000F931F93CF93DF930091DC041091DD045D
:10187000E090D804F090D904C1E6D3E06991011555
:10188000110599F0062E000C770BC7010E947128F4
:10189000009759F08E199F0997FD07C083E0C7365E
:1018A000D80761F780E090E002C08FEF9FEFDF91F3
:1018B000CF911F910F91FF90EF900895EF92FF92BB
:1018C0000F931F93CF93DF936DE473E084EA91E06D
:1018D0000E94BD15109243031092440310924503D9
:1018E0001092460310924703109248031092490346
:1018F00010924A0310924B0310924C0383E4E82E9B
:1019000083E0F82ECFE1D0E000E010E0F701619134
:101910007F01060F111DCE010E948F242196C9322E
:10192000D105A1F7602F89E290E0DF91CF911F915F
:101930000F91FF90EF900C948F240F931F93CF93F0
:10194000DF938C01C0E0D0E0F801EC0FFD1F649143
:10195000662341F085E793E00E94860F892B11F002
:101960002196F2CFCE01DF91CF911F910F91089573
:101970008F929F92AF92BF92CF92DF92EF92FF929F
:101980000F931F93CF93DF936B017C01142F9B0167
:10199000AC010E947726882319F086EC92E027C0DC
:1019A00046015701E894B7F82FEF3FEF4FE75FE7A5
:1019B000C501B4010E94772681110DC02FEF3FEFC2
:1019C0004FE75FE7C501B4010E94602318161CF4BD
:1019D0008AEC92E00CC02FEF3FEF4FE75FE4C701C6
:1019E000B6010E947226181684F48EEC92E0DF9104
:1019F000CF911F910F91FF90EF90DF90CF90BF900C
:101A0000AF909F908F900C94070B2FEF3FEF4FE715
:101A10005FECC701B6010E94602387FDE6CF20E09E
:101A200030E0A901C701B6010E94602387FF0BC007
:101A30006DE285E793E00E94860FEC01F7FAF094DF
:101A4000F7F8F09402C0C0E0D0E000E060E070E0A1
:101A500080E09FE3101741F020E030E040E251E4E5
:101A60000E94D1250F5FF6CFA70196010E94652540
:101A70006B017C010E9443264B015C014AE00E94FD
:101A8000190BC80FD91F1123B9F1C501B4010E9468
:101A900065239B01AC01C701B6010E9464256B015F
:101AA0007C016EE285E793E00E94860FC80FD91F84
:101AB00020E030E040E251E4C701B6010E94C623B5
:101AC0004B015C010E9443266B01E12CF12C4AE0A2
:101AD000C701B6010E94190BC80FD91FC701B60173
:101AE0000E9465239B01AC01C501B4010E946425DD
:101AF0006B017C011150E1F6CE01DF91CF911F9176
:101B00000F91FF90EF90DF90CF90BF90AF909F909C
:101B10008F900895CF93DF93FC01A081B18110973E
:101B200001F1EC01ED91FC9111970190F081E02D14
:101B300069EFCD01099588819981DC01ED91FC91D6
:101B40000190F081E02D62E0099588819981DC01A6
:101B5000ED91FC910190F081E02D65E0DF91CF9156
:101B60000994DF91CF9108956115710551F0FB0142
:101B700001900020E9F73197AF01461B570B0C94F9
:101B8000BE1080E00895EF92FF920F931F93CF93C2
:101B9000DF93CDB7DEB764970FB6F894DEBF0FBE04
:101BA000CDBF7C01CB01BA018E010F5F1F4F22E038
:101BB00044E00E94131FFC0101900020E9F73197D7
:101BC000AF01481B590BBC01C7010E94BE106496AF
:101BD0000FB6F894DEBF0FBECDBFDF91CF911F913E
:101BE0000F91FF90EF9008950F931F93CF93DF9382
:101BF000CDB7DEB729970FB6F894DEBF0FBECDBFC5
:101C00008C01862FF80111821082138212821582B4
:101C1000148240E1BE016F5F7F4F90E00E94951FEC
:101C2000BE016F5F7F4FC8010E94821129960FB6D7
:101C3000F894DEBF0FBECDBFDF91CF911F910F9102
:101C400008951F93CF93DF93182FEB0180915704D2
:101C50009091580468177907A8F0E0918404F091F6
:101C6000850481E03097C1F0809354048091700422
:101C70009091710409958091570490915804C81768
:101C8000D90748F48091550490915604C80FD91F84
:101C9000188380E001C081E0DF91CF911F9108950A
:101CA000AC01FB0180E090E09C01220F331F241760
:101CB000350770F4DB012C91208311963C91379508
:101CC00033273795232B219301966E5F7F4FECCFFF
:101CD000089590E0FC01EA57FD4F2491FC01EE5875
:101CE000FD4F3491FC01E25AFD4FE491EE2309F4DB
:101CF0003CC0222339F1233091F038F42130A9F08F
:101D0000223001F584B58F7D12C0273091F0283044
:101D1000A1F02430B9F4809180008F7D03C08091C0
:101D200080008F77809380000DC084B58F7784BD4D
:101D300009C08091B0008F7703C08091B0008F7D83
:101D40008093B000F0E0EE0FFF1FEC5AFD4FA5911D
:101D5000B4919FB7F894611104C08C9130953823E9
:101D600002C0EC913E2B3C939FBF0895CF93DF932D
:101D700090E0FC01EE58FD4F2491FC01E25AFD4F2A
:101D80008491882361F190E0880F991FFC01E65B44
:101D9000FD4FC591D491FC01EC5AFD4FA591B49132
:101DA000611109C09FB7F8948881209582238883A8
:101DB000EC912E230BC0623061F49FB7F8948881B8
:101DC000322F309583238883EC912E2B2C939FBF49
:101DD00006C08FB7F894E8812E2B28838FBFDF9140
:101DE000CF9108950895CF92DF92EF92FF920F93D3
:101DF0001F93CF93DF936C017A018B01C0E0D0E099
:101E0000CE15DF0581F0D8016D918D01D601ED91E0
:101E1000FC910190F081E02DC6010995892B11F00C
:101E20002196EECF7E01C701DF91CF911F910F91D7
:101E3000FF90EF90DF90CF900895FC01538D448D7B
:101E4000252F30E0842F90E0821B930B541710F065
:101E5000CF96089501970895FC01918D828D981772
:101E600061F0828DDF01A80FB11D5D968C91928D7E
:101E70009F5F9F73928F90E008958FEF9FEF08957B
:101E8000FC01918D828D981731F0828DE80FF11D44
:101E9000858D90E008958FEF9FEF0895FC01918D5F
:101EA000228D892F90E0805C9F4F821B91098F7358
:101EB0009927089585E793E00E944E0F21E0892B32
:101EC00009F420E0822F0895FC01848DDF01A80F22
:101ED000B11DA35ABF4F2C91848D90E001968F7352
:101EE0009927848FA689B7892C93A089B1898C9171
:101EF000837080648C93938D848D981306C00288C0
:101F0000F389E02D80818F7D80830895EF92FF9289
:101F10000F931F93CF93DF93EC0181E0888F9B8D0C
:101F20008C8D981305C0E889F989808185FD26C0CC
:101F3000F62E0B8D10E00F5F1F4F0F731127E02E51
:101F40008C8DE8120CC00FB607FCFACFE889F9892E
:101F5000808185FFF5CFCE010E94640FF1CF8B8D7C
:101F6000FE01E80FF11DE35AFF4FF0829FB7F8948E
:101F70000B8FEA89FB89808180620AC09FB7F89441
:101F8000EE89FF896083E889F989808183708064A4
:101F900080839FBF81E090E0DF91CF911F910F91EF
:101FA000FF90EF900895CF93DF93EC01888D882305
:101FB000C9F0EA89FB89808185FD05C0A889B989B6
:101FC0008C9186FD0FC00FB607FCF5CF808185FF91
:101FD000F2CFA889B9898C9185FFEDCFCE010E94FF
:101FE000640FE7CFDF91CF91089580E090E0892BD7
:101FF00029F00E945A0F81110C940000089585ED7C
:102000008093BC008091BC0084FDFCCF1092A80599
:10201000089540918405262F30E0240F311D213290
:102020003105DCF42091A8052430C9F4FC0180E0DE
:1020300090E0861758F4309184052191DC01AC5969
:10204000BA4FA30FB11D2C930196F3CF8091840555
:10205000680F6093840580E0089581E0089582E030
:10206000089508958FEF9FEF08958FEF9FEF0895E4
:102070008091630590E09195819591090895CF93A2
:10208000DF93CB01EA01642F0E940910CE01DF919A
:10209000CF910895CF93DF931F92CDB7DEB76983B9
:1020A00061E0CE0101960E94091081E090E00F905E
:1020B000DF91CF91089580E090E00895CF93DF9372
:1020C000FC0124813581232B71F0FB01DC01CD91D2
:1020D000DC9160817181CE010E949B28009719F0EC
:1020E0008C1B9D0B02C08FEF9FEFDF91CF91089566
:1020F000FC0124813581232B31F421E06115710528
:10210000A1F0FB0108C0FC0180819181611571057E
:1021100031F421E0FC018081882339F005C00E9460
:102120007C2821E0892B09F020E0822F08950F936D
:102130001F93CF93DF93EC0188819981009729F059
:102140002A813B812617370788F48B016F5F7F4F09
:102150000E949D27009761F0998388831B830A83DF
:102160002C813D81232B11F4FC01108281E001C000
:1021700080E0DF91CF911F910F910895EF92FF9230
:102180000F931F93CF93DF936115710511F480E0D6
:102190001CC041155105C1F07B01EC018C819D8172
:1021A0008A01080F191FB801CE010E9497108823D9
:1021B00071F3288139818C819D81B701820F931F32
:1021C0000E9485281D830C8381E0DF91CF911F91B0
:1021D0000F91FF90EF900895CF93DF93EC018881EA
:1021E0009981009711F00E941427198218821D828C
:1021F0001C821B821A82DF91CF910895EF92FF9289
:102200000F931F93CF93DF93CDB7DEB72D970FB604
:10221000F894DEBF0FBECDBF7C01CB01BA012AE02E
:102220008E010F5F1F4FA8010E94731FF8010190DC
:102230000020E9F73197AF01401B510BB801C701EE
:102240000E94BE10811103C0C7010E94EC10C7019B
:102250002D960FB6F894DEBF0FBECDBFDF91CF91A4
:102260001F910F91FF90EF900895CF93DF93EC01B2
:102270006115710561F0FB0101900020E9F73197CC
:10228000AF01461B570B0E94BE10811103C0CE0147
:102290000E94EC10CE01DF91CF910895CF93DF9390
:1022A000EC01FB0144815581608171810E94BE1067
:1022B000811103C0CE010E94EC10CE01DF91CF91BD
:1022C0000895EF92FF920F931F93CF93DF93EC014A
:1022D0007B018A01BA010E949710811104C0CE01CE
:1022E0000E94EC1007C01D830C83B701888199817F
:1022F0000E948528CE01DF91CF911F910F91FF9011
:10230000EF900895CF93DF93EC016115710559F0BB
:10231000FB0101900020E9F73197AF01461B570BF5
:102320000E94611102C00E94EC10CE01DF91CF919A
:102330000895CF93DF93EC01FB018617970761F0B7
:10234000608171816115710529F0448155810E9478
:10235000611102C00E94EC10CE01DF91CF9108956F
:10236000FC01808191810C941427FC011182108260
:1023700013821282158214820C949911FC0111822D
:10238000108213821282158214826115710551F038
:10239000FB0101900020E9F73197AF01461B570B75
:1023A0000C94611108951F920F920FB60F92112491
:1023B0002F933F934F935F936F937F938F939F934D
:1023C000AF93BF93EF93FF9380915F05909160056A
:1023D000A0916105B0916205892B8A2B8B2B59F155
:1023E00090915E05E0915C05F0915D058081892703
:1023F000808380915F0590916005A0916105B09107
:102400006205181619061A061B060CF03DC08091CD
:102410005F0590916005A0916105B09162050197FB
:10242000A109B10980935F0590936005A0936105B0
:10243000B093620529C080911201EAE9F2E0E491CB
:102440009FEF90931201E130B9F098F0E230C9F4B7
:10245000909170009D7F9093700091E09093B000F8
:102460009091B100987F94609093B1001092B30066
:1024700008C010926E0005C090916F009D7F9093F0
:102480006F0060E00E94690EFF91EF91BF91AF91E4
:102490009F918F917F916F915F914F913F912F917C
:1024A0000F900FBE0F901F9018951F920F920FB6AE
:1024B0000F9211242F933F934F935F936F937F93CA
:1024C0008F939F93AF93BF93EF93FF9385E793E031
:1024D0000E94640FFF91EF91BF91AF919F918F91F7
:1024E0007F916F915F914F913F912F910F900FBE10
:1024F0000F901F9018951F920F920FB60F921124F4
:102500002F938F939F93EF93FF93E0918503F09127
:1025100086038081E0918B03F0918C0382FD12C0D1
:10252000908180918E038F5F8F7320918F0382172C
:1025300051F0E0918E03F0E0EB58FC4F958F8093C3
:102540008E0301C08081FF91EF919F918F912F9118
:102550000F900FBE0F901F9018951F920F920FB6FD
:102560000F9211242F933F934F935F936F937F9319
:102570008F939F93AF93BF93EF93FF938091B90095
:10258000887F803609F49CC068F5883209F45BC006
:1025900090F4803109F454C038F4882309F4F2C06F
:1025A000883009F44DC0F2C0883109F44CC0803243
:1025B00009F45DC0EBC0803409F468C048F480338E
:1025C00009F455C0883309F0E1C08093A705D4C051
:1025D000803509F44FC0883509F45DC0883409F0AE
:1025E000D5C0D2C0883909F4C3C0A8F4883709F42B
:1025F00067C038F4883609F463C0803709F460C0D6
:10260000C5C0883809F4B4C0803909F45FC0803887
:1026100009F0BCC05BC0803B09F484C038F4803A48
:1026200009F466C0883A09F47DC0B0C0803C09F462
:10263000A3C0883C09F4A0C0883B09F486C0A6C0AA
:102640008091CD0510C09091CC058091CB05981755
:1026500070F5E091CC0581E08E0F8093CC05F0E021
:10266000E555FA4F80818093BB0085EC82C0809352
:10267000A7058AC0E091CC0581E08E0F8093CC0540
:102680008091BB00F0E0E555FA4F80839091CC0536
:102690008091CB056AC0E091CC0581E08E0F8093DC
:1026A000CC058091BB00F0E0E555FA4F8083809126
:1026B000AA05811169C081E08093A90584EA5DC003
:1026C00083E08093A8051092A605CFCF8091A60540
:1026D000803208F04DC0E091A60581E08E0F809316
:1026E000A6058091BB00F0E0EA57FA4F8083BDCF8A
:1026F00085EC8093BC001092A8058091A6058032DD
:1027000030F4E091A605F0E0EA57FA4F10826091AC
:10271000A60570E086E895E0E0E0F0E0099510920B
:10272000A60534C084E08093A80510928505109218
:102730008405E0E0F0E0099580918405811105C0F1
:1027400081E08093840510926405E091850581E025
:102750008E0F80938505F0E0EC59FA4F80818093CD
:10276000BB009091850580918405981708F47DCF72
:1027700085E88093BC000AC085EC8093BC00109271
:10278000A80504C01092A7050E94FF0FFF91EF91CA
:10279000BF91AF919F918F917F916F915F914F9179
:1027A0003F912F910F900FBE0F901F9018953F9261
:1027B0004F925F926F927F928F929F92AF92BF9251
:1027C000CF92DF92EF92FF920F931F93CF93DF93FD
:1027D0005C016901DA013C90232B19F4CC24CA94E2
:1027E000DC2C7A012A01460E571EC0E0D0E000E042
:1027F00010E087E0682E712CE414F50409F443C05E
:102800000C151D0508F067C04701F5018081918115
:10281000D7016D917D010C2E01C0660F0A94EAF775
:1028200063296F77DC01ED91FC910190F081E02D3F
:1028300009950F5F1F4FF401608170E0C3018C1B8D
:102840009D0B02C0759567958A95E2F7362E219605
:10285000C730D10588F2C016D10699F0D5018D9107
:102860009C91632D6F77DC01ED91FC910190F081DB
:10287000E02D09950F5F1F4F331C3324331C27971E
:10288000E7CF8601B9CF209731F10C151D0518F55A
:10289000F5018081918161E070E001C0660FCA9509
:1028A000EAF761506321DC01ED91FC910190F08128
:1028B000E02DDF91CF911F910F91FF90EF90DF906E
:1028C000CF90BF90AF909F908F907F906F905F90D0
:1028D0004F903F900994DF91CF911F910F91FF90FE
:1028E000EF90DF90CF90BF90AF909F908F907F90B0
:1028F0006F905F904F903F900895E0910A03F091A0
:102900000B03309709F009940895862F642FE09106
:102910000803F0910903309711F0A9010994089573
:102920000895862FE0910003F0910103309711F094
:10293000BA0109940895862FE0910203F0910303F0
:10294000309711F0BA0109940895862FE091FC02A6
:10295000F091FD02309711F0BA0109940895862F85
:10296000E091FE02F091FF02309711F0BA01099454
:102970000895862FE0910403F0910503309711F03C
:10298000BA0109940895862FE0910603F091070398
:10299000309711F0BA0109940895009721F0805CF6
:1029A0009F4F0C948A0D0895EF92FF920F931F93FF
:1029B000CF93DF938B010C5E1F4FEB017C01E61A76
:1029C000F70AC7018C0F9D1F0E9487248993C017A7
:1029D000D107B9F7DF91CF911F910F91FF90EF9041
:1029E0000895CF9310920F0310920C031092D0050C
:1029F0001092100310920D031092D1051092110342
:102A000010920E031092D205C0E082EF8C0F883036
:102A100018F462E070E006C08EEF8C0F823128F46B
:102A200061E070E08C2F0E94C702CF5FC63169F76A
:102A30001092CF051092CE05CF910895DF92EF92BC
:102A4000FF920F931F93CF93DF93FC01E058FF4F4A
:102A5000D080DD2009F45DC0EC01C05CDF4FA881AF
:102A6000B981109709F455C0FC01EF57FF4F008161
:102A70001181F801F180E080ED91FC9111970190B6
:102A8000F081E02D60EFCD01099588819981DC010D
:102A9000ED91FC910190F081E02D69E70995888125
:102AA0009981DC01ED91FC910190F081E02D6E2D7A
:102AB000099588819981DC01ED91FC910190F0816B
:102AC000E02D6F2D09957801B2E0EB0EF11C0D0D94
:102AD000111DE016F10661F020E030E0A70161E091
:102AE00070E0CE010E94D713EFEFEE1AFE0AF1CF8D
:102AF00088819981DC01ED91FC910190F081E02DBC
:102B000067EFDF91CF911F910F91FF90EF90DF90D2
:102B10000994DF91CF911F910F91FF90EF90DF907B
:102B20000895009711F00C941E1508950F931F93AC
:102B3000CF93DF9361E673E080E991E00E94D414C3
:102B40000E942E0C892BA1F001E613E0C8E1D0E031
:102B5000CE010E948724F80181938F012196CE3106
:102B6000D105B1F70E942E0C892B11F01092610350
:102B7000DF91CF911F910F910895CF92DF92EF9245
:102B8000FF920F931F93CF93DF93CDB7DEB7649778
:102B90000FB6F894DEBF0FBECDBF6C018B01BE0136
:102BA0006F5F7F4F0E94D414B801CE0101960E943E
:102BB0007C28892B81F0780100E010E0F701619119
:102BC0007F01C8018C0D9D1D0E948F240F5F1F4F38
:102BD0000431110599F764960FB6F894DEBF0FBE65
:102BE000CDBFDF91CF911F910F91FF90EF90DF90BC
:102BF000CF900895CF9386E190E00E948724C82F5C
:102C000087E190E00E9487248D3328F4CD3318F4B7
:102C100090E09C2B02C080E091E0CF910895AF92AC
:102C2000BF92CF92DF92EF92FF920F931F93CF93B9
:102C3000DF9300D000D000D0CDB7DEB75C018B01B0
:102C400020911E0330911F0340E050E06091120379
:102C50007091130380911403909115030E94022533
:102C6000CA01B9010E9465236B017C0120E030ECB0
:102C70004FE754E40E94722687FD07C0C12C20EC68
:102C8000D22E2FE7E22E24E4F22E20E030E048ECB2
:102C900052E4C701B6010E94C6231092120310929B
:102CA0001303109214031092150310921F03109235
:102CB0001E0320E030EC4FE754E40E94D125AB0125
:102CC000BC01C8010E94C30D60EF72E0C8010E9400
:102CD000B40D209120033091210340E050E0609139
:102CE00016037091170380911803909119030E94A5
:102CF0000225CA01B9010E9465236B017C0120E015
:102D000030EC4FE754E40E94722687FD07C0C12CC7
:102D100090ECD92E9FE7E92E94E4F92E2EE137EAC4
:102D200048EE5DE3C701B6010E94C6231092160368
:102D30001092170310921803109219031092210396
:102D40001092200322E538EB47E152E40E9464250B
:102D5000AB01BC01C8010E94C30D60EF72E0C80165
:102D60000E94B40D209122033091230340E050E0F3
:102D700060911A0370911B0380911C0390911D03B5
:102D80000E940225CA01B9010E9465236B017C01E2
:102D900020E030EC4FE754E40E94722687FF19C010
:102DA00020E030E046E953E4C701B6010E94602309
:102DB00087FF16C02BE330E74EE45CE3C701B601A2
:102DC0000E94C6232FE632E143E05DE30E946425C2
:102DD00015C0C12C80ECD82E8FE7E82E84E4F82EA5
:102DE00029E730E449ED5BE3C701B6010E94C62341
:102DF00024E036E54EED5FE30E9465256B017C0122
:102E000020E030E0A9010E94602387FF03C0C12CAD
:102E1000D12C760110921A0310921B0310921C03FE
:102E200010921D031092230310922203B701A601F2
:102E3000C8010E94C30D62ED72E0C8010E94B40D8A
:102E400062ED72E0C8010E94B40DB801CE01019696
:102E50000E94B511CE0101960E94B011B801C501C2
:102E60000E94B511C50126960FB6F894DEBF0FBEBD
:102E7000CDBFDF91CF911F910F91FF90EF90DF9029
:102E8000CF90BF90AF9008958F929F92AF92BF92D4
:102E9000CF92DF92EF92FF920F931F93CF93DF9326
:102EA000CDB7DEB72C970FB6F894DEBF0FBECDBFFF
:102EB0006C01062F61ED71E0CE0107960E94BE11F4
:102EC000109111018090130190901401A0901501B0
:102ED000B0901601113150F5011105C095EDE92EA4
:102EE00092E0F92E04C081EDE82E81E0F82EB601C3
:102EF000CE0101960E94B5116EED72E0CE010196F1
:102F00000E94351126E0129FB00111246C517B4FB5
:102F10000E944E1160EF72E00E943511B501A401CC
:102F20000E94FE10B7010E9435110FC0B601CE01FC
:102F300001960E94B51166EE72E0CE0101960E94E4
:102F40003511B501A4010E94FE10BC01CE01079607
:102F50000E949911CE0101960E94B01162E370E0C7
:102F600080E090E00E94330A80EF0E94210C83E011
:102F70000E94210C83E00E94210C10E0812F90E040
:102F80002B853C858217930778F42F81388521158E
:102F9000310529F0F901E80FF91F808101C080E0B7
:102FA0000E94210C1F5FEACF87EF0E94210C62E391
:102FB00070E080E090E00E94330A0023D9F0809115
:102FC000130190911401A0911501B0911601019681
:102FD000A11DB11D0097A105B10521F481E090E08C
:102FE000A0E0B0E08093130190931401A093150129
:102FF000B0931601CE0107960E94B0112C960FB621
:10300000F894DEBF0FBECDBFDF91CF911F910F911E
:10301000FF90EF90DF90CF90BF90AF909F908F90F8
:103020000895CF93DF93CDB7DEB72C970FB6F89402
:10303000DEBF0FBECDBF61ED71E0CE0107960E94ED
:10304000BE11BE01695F7F4FCE0101960E940F162F
:1030500060E0CE0101960E944417CE0101960E94C5
:10306000B011CE0107960E94B0112C960FB6F894BD
:10307000DEBF0FBECDBFDF91CF910895CF93DF9319
:10308000CDB7DEB762970FB6F894DEBF0FBECDBFE7
:10309000789484B5826084BD84B5816084BD85B533
:1030A000826085BD85B5816085BD80916E0081603F
:1030B00080936E00109281008091810082608093E5
:1030C00081008091810081608093810080918000E7
:1030D0008160809380008091B10084608093B10012
:1030E0008091B00081608093B00080917A0084600C
:1030F00080937A0080917A00826080937A00809138
:103100007A00816080937A0080917A008068809351
:103110007A001092C10084E180939204809193041C
:10312000909194040E9414270091920410E0C80129
:1031300001960E947C269093940480939304FC0152
:10314000E00FF11F1082A2E0FA2EDC01FC9225E0D4
:1031500011962C93A8014250510967E172E0029642
:103160000E948C2883E392E09093070380930603E8
:1031700083E991E090930503809304038AE791E04B
:10318000909303038093020384EF93E090930103F1
:103190008093000387EC92E09093FF028093FE02FD
:1031A00082EB92E09093FD028093FC028BE194E02D
:1031B000909309038093080381EF94E190930B03AC
:1031C00080930A03E0918503F0918603F082E091F9
:1031D0008503F09186031082E0918103F0918203D0
:1031E0001082E0918303F091840380E18083109248
:1031F0008D03E0918903F0918A0386E08083E0915A
:103200008703F0918803808180618083E091870348
:10321000F0918803808188608083E0918703F0913A
:103220008803808180688083E0918703F091880320
:1032300080818F7D80838091D704811140C061E0BF
:103240008DE00E94B60E10E062ED70E080E090E04C
:103250000E94330A61E08DE00E94690E68E270E02E
:1032600080E090E00E94330A60E08DE00E94690EE9
:103270001F5F123049F76AEF70E080E090E00E9433
:10328000330A10E062ED70E080E090E00E94330AC3
:1032900061E08DE00E94690E68E270E080E090E0FD
:1032A0000E94330A60E08DE00E94690E1F5F1530B6
:1032B00049F76DE770E080E090E00E94330A85E70F
:1032C00093E090939104809390049093530480939F
:1032D000520482E594E00E948A0D82E194E00E940B
:1032E0001E150E94F11410922F0310922E03F894D1
:1032F000A8958091600088618093600089E6809342
:103300006000789480911101811113C000E211E0F6
:10331000F8E3EF2EF1E0FF2EF80180810E5F1F4FE2
:1033200061E00E94B60EE016F106B1F70E94961514
:103330005DC060E08EE00E94B60E60E08FE00E940B
:10334000B60E60E080E10E94B60E0E94FA15AC0154
:10335000252F30E0ACE3B0E00E94DF2455277B014D
:103360008C01E40EF51E011D111DA8019701A8EEA8
:10337000B3E00E949D246093010170930201809349
:10338000030190930401672B682B692B61F480E79C
:1033900097E1A0E0B0E08093010190930201A09337
:1033A0000301B093040160910101709102018091C9
:1033B0000301909104010E94652322E93CE54EE758
:1033C0005FE30E94C6230E9443266093010170932D
:1033D000020180930301909304010E949615A89521
:1033E00068EC70E080E090E00E94330A52E0452EE5
:1033F000512CCC24C394D12C22242394312CEEE1E3
:103400006E2EE3E07E2E80910F03882349F069B190
:1034100080910C0368236C7F40E080E00E94B2033F
:1034200080911003882381F083B196B1682F6F7368
:1034300000E4909FC0011124862B60910D03682346
:1034400040E081E00E94B20380911103882359F08B
:1034500066B16C736695669580910E03682340E0B3
:1034600082E00E94B2038091900490919104DC016B
:10347000ED91FC910084F185E02D0995892B09F4EB
:10348000D1C18091900490919104DC01ED91FC9167
:103490000284F385E02D09959C018F3FBFEF9B07C8
:1034A00011F3982F80915D04882309F492C0973F0F
:1034B00009F07EC010925D04A0915504B0915604AD
:1034C0006C916137C1F1693709F05CC0E0918A0401
:1034D000F0918B04309739F280915E0490915F04F3
:1034E0008330910538F420E030E040E050E060E0C7
:1034F00070E01BC0BD016D5F7F4F03970E94500EAF
:10350000BC016D5F7F4F80E00E94210EE091550469
:10351000F09156049F012D5F3F4F428150E0618141
:1035200070E0E0918A04F0918B0480916C0490919A
:103530006D04099598CF8091860490918704892B1A
:1035400009F491CFBD016F5F7F4F80915E04909130
:103550005F0401970E94500EBC016F5F7F4F80E0B7
:103560000E94210E60915504709156046F5F7F4F49
:10357000E0918604F0918704809172049091730425
:10358000099571CFE0918804F0918904309709F48E
:103590006ACF9D012F5F3F4F40915E0450915F04C1
:1035A00041505109809174049091750409955BCF45
:1035B00060915E0470915F04822F0E94210E8091C1
:1035C0005E0490915F04019690935F0480935E0483
:1035D0004ACF60915B0470915C046115710509F438
:1035E000AFC027FDADC06150710970935C0460935A
:1035F0005B04822F0E94210E80915B0490915C04F9
:10360000892B09F030CF80915904882309F42BCFFE
:10361000803D09F47FC030F4803939F1803C09F4F1
:1036200066C08BC0843FE1F1853F09F44DC0803E08
:1036300009F083C0E0917804F0917904309709F49F
:103640007CC0A0915504B09156048C9111964C9178
:1036500050E000E8809F400D511D112460915A04F4
:10366000809160049091610467C0E0917A04F091C8
:103670007B04309709F461C0A0915504B0915604C1
:103680008C9111964C9150E010E8819F400D511D96
:10369000112460915A0480916204909163044CC09B
:1036A000E0918004F0918104309709F446C0A09124
:1036B0005504B09156044C9150E011966C91809154
:1036C00068049091690438C0E0918204F091830409
:1036D000309799F1A0915504B09156044C9150E067
:1036E00011966C9180916A0490916B0425C0E091D1
:1036F0007C04F0917D04309701F1A0915504B091C4
:1037000056044C9150E060915A0480916404909169
:10371000650412C0E0917E04F0917F04309769F057
:10372000A0915504B09156044C9150E060915A0418
:10373000809166049091670409951092590493CE84
:10374000903F30F4822F8F7080935A04922F907F95
:10375000903F89F158F4903C39F118F49039E9F030
:1037600082CE903D09F1903EC1F07DCE993F09F4A3
:103770004CC028F48CE0890F823078F074CE9F3FE3
:1037800009F071CE10925C0410925B0410925904FF
:1037900010925A0480E090E016C022E030E03093AE
:1037A0005C0420935B0404C030925C0420925B04B0
:1037B0009093590458CE31E030935D0410925F0429
:1037C00010925E0450CE2091570430915804821715
:1037D000930748F4E0915504F0915604E80FF91F5F
:1037E00010820196F0CF10925D0410925F04109247
:1037F0005E04E0918E04F0918F04309709F433CE8B
:1038000080917604909177040BC0E0918C04F09144
:103810008D04309709F427CE80916E0490916F0447
:10382000099521CE61ED71E0CE010D960E94BE1189
:1038300060E470E0CE010D960E9497102FB7F894C7
:103840008091350390913603A0913703B0913803EE
:103850002FBF8093300390933103A0933203B09332
:103860003303A89502E113E03EE1E32E33E0F32EAB
:103870004DE1A42E41E0B42ED7012D913C9120348E
:103880003105A1F4F80180819181A281B38126E004
:10389000B695A795979587952A95D1F780839183BB
:1038A000A283B383D701CD92DC9215C021343105B8
:1038B00090F040E050E0F801608171818281938155
:1038C0000E940225D8012D933D934D935C9313974D
:1038D000F701D182C082D5018D915D018E3008F053
:1038E0008E508770806480937C0080917A00806421
:1038F00080937A0080917A0086FDFCCF80917800D9
:103900002091790090E0922B092E000CAA0BBB0BA2
:10391000F8014081518162817381840F951FA61F38
:10392000B71F81939193A193B1938F01D7018D918B
:103930009C910196F701819391937F016016710626
:1039400009F09ACF6AE070E080E090E00E94330ACC
:1039500080911101811129C080E2E82E81E0F82ECA
:1039600000912E0310912F03D7018C91B2E0EB0E42
:10397000F11C61E00115110509F460E00E94690E77
:10398000E8E3F1E0EE15FF0559F76CE271E080E045
:1039900090E00E94330AC8010196B2010E94EE2411
:1039A00090932F0380932E0390C0809130039091C9
:1039B0003103A0913203B091330340912A03509117
:1039C0002B0360912C0370912D034C015D01841A2F
:1039D000950AA60AB70A00910101109102012091EF
:1039E00003013091040180169106A206B30620F06F
:1039F00020910001211104C0452B462B472BC9F40F
:103A000080932A0390932B03A0932C03B0932D0350
:103A100010922403BE01635F7F4FCE0107960E9480
:103A20000F16BE01695F7F4FCE0101960E94B5114E
:103A300013C0809129038823E9F01092290361EDD6
:103A400071E0CE0107960E94BE11BE01695F7F4FF3
:103A5000CE0101960E940F1661E0CE0101960E94F0
:103A60004417CE0101960E94B011CE0107960E9424
:103A7000B01108C080912403882321F01092240300
:103A80000E9411188091300390913103A09132036C
:103A9000B091330340912503509126036091270391
:103AA00070912803411551056105710531F09C01A4
:103AB000241B350B243F314044F080932503909321
:103AC0002603A0932703B0932803CE010D960E94EE
:103AD000B0110E94F50F97CCCF93DF93CDB7DEB72F
:103AE00062970FB6F894DEBF0FBECDBFE5E7F3E0F7
:103AF0001382128288EE93E0A0E0B0E08483958385
:103B0000A683B7832CE331E03183208325EC30E0BA
:103B10003587248724EC30E03787268720EC30E097
:103B2000318B208B21EC30E0338B228B22EC30E088
:103B3000358B248B26EC30E0378B268B118E128E42
:103B4000138E148EE0E5F5E0138212828483958350
:103B5000A683B7838EE491E09183808382E194E031
:103B6000109253041092520490935604809355047B
:103B700020E430E030935804209357041092590405
:103B800010925A0410925C0410925B0410925D042F
:103B900010925F0410925E0410926104109260040F
:103BA00010926304109262041092650410926404EF
:103BB00010926704109266041092690410926804CF
:103BC00010926B0410926A041092710410927004A7
:103BD000109273041092720410927504109274047F
:103BE0001092770410927604109285041092840447
:103BF0001092540410929204109294041092930420
:103C00001092D70423EC34E13093790420937804A4
:103C100029EB34E130937B0420937A042BE934E1DF
:103C200030937D0420937C0421E934E130937F04B8
:103C300020937E042FEA34E13093810420938004A2
:103C400025EA34E1309383042093820420E934E1AF
:103C5000309387042093860425E834E13093890467
:103C60002093880421E935E130938B0420938A0462
:103C700090936D0480936C042DEC34E130938D04AB
:103C800020938C0490936F0480936E048DE794E1ED
:103C900090938F0480938E046AE272E084EE94E045
:103CA0000E94BE116EE272E08AEE94E00E94BE11A4
:103CB00062E372E080EF94E00E94BE1166E372E07E
:103CC00086EF94E00E94BE116AE372E08CEF94E00C
:103CD0000E94BE116EE372E082E095E00E94BE1188
:103CE00062E472E088E095E00E94BE1166E472E052
:103CF0008EE095E00E94BE116AE472E084E195E0F6
:103D00000E94BE116EE472E08AE195E00E94BE114D
:103D100062E572E080E295E00E94BE1166E572E025
:103D200086E295E00E94BE116AE572E08CE295E0C1
:103D30000E94BE116EE572E082E395E00E94BE1122
:103D400062E672E088E395E00E94BE1166E672E0EA
:103D50008EE395E00E94BE116AE672E084E495E08D
:103D60000E94BE116AE272E08AE495E00E94BE11F0
:103D70006091110186E0689FB00111246C517B4F66
:103D8000CE010D960E94B5116EE672E0CE01079647
:103D90000E94BE1165E071E0CE0101960E94BE1145
:103DA000BE01695F7F4FCE0101960E944E11BE0198
:103DB000635F7F4F0E944E11BC018EED94E00E9424
:103DC000B511CE0101960E94B011CE0107960E9456
:103DD000B011CE010D960E94B01162E972E088ED3B
:103DE00094E00E94BE1162960FB6F894DEBF0FBE3B
:103DF000CDBFDF91CF910895CF93DF9388ED94E00D
:103E00000E94B0118EED94E00E94B011C0E5D5E0A3
:103E10002697CE010E94B01184E0C43ED807C1F7B6
:103E2000DF91CF910895EF920F931F93CF93DF937C
:103E3000E80147FD02C034E001C034E1042E000C6B
:103E4000550B57FF03C0519541955109E32E022FA1
:103E5000242FAE010E94AF1FCE01DF91CF911F91A1
:103E60000F91EF900895662777270C9409211F93EF
:103E7000FC0199278827BC01E89411911032E9F3DD
:103E8000193010F01E30C8F31B3251F01D3249F4C6
:103E9000689406C00E945E1F610F711D811D911DF7
:103EA000119110531A30B0F33EF4909580957095AF
:103EB00061957F4F8F4F9F4F1F910895592F482F26
:103EC000372F262F660F771F881F991F660F771FC2
:103ED000881F991F620F731F841F951F660F771F1E
:103EE000881F991F0895BB27FA01A62F6217710535
:103EF00081059105330B30FB66F0AA27660F771F0B
:103F0000881F991FAA1FA21710F0A21B6395385093
:103F1000A9F7A05DAA3308F0A95DA19336F7B11106
:103F2000B1931082CA010C945023BB27FB01552783
:103F3000AA27880F991FAA1FA41710F0A41B839506
:103F40005051B9F7A05DAA3308F0A95DA19300977D
:103F500079F7B111B1931192CB010C945023A9E0E0
:103F6000B0E0E5EBFFE10C94AE246A01122FB02E15
:103F70002BE3201720F0FF24F394F00E02C02CE373
:103F8000F22E0F2D27E0AE014F5F5F4F0E945722A8
:103F9000BC014981842F8970813031F0E1FC06C079
:103FA000E0FE06C090E205C09DE203C09BE201C0B6
:103FB00090E05E2D507143FF3CC0911102C083E040
:103FC00001C084E0811718F4212F281B01C020E0D4
:103FD00051110BC0F601822F30E2882319F0319382
:103FE0008150FBCFC20ED11C20E0992329F0D601CD
:103FF0009C93F60131966F01C6010396E2FE0AC05A
:104000003EE4D6013C9341E411964C9311971296ED
:104010003C9306C03EE6F601308341E6418332839D
:10402000FC01322F40E2332309F442C04193315066
:10403000FACF42FF44C0911102C083E001C084E086
:10404000811718F4212F281B01C020E051110BC04B
:10405000F601822F30E2882319F031938150FBCF93
:10406000C20ED11C20E0992329F0D6019C93F601C1
:1040700031966F01C6010396E2FE0BC039E4D6010A
:104080003C933EE411963C93119736E412963C9390
:1040900007C039E6F60130833EE6318336E63283E7
:1040A000FC01322F40E2332319F041933150FBCF12
:1040B000FC01E20FF11D10828EEF9FEFA6C021E000
:1040C00030E0911102C020E030E0161617061CF413
:1040D000FB01319602C0E1E0F0E02E0F3F1FBB2054
:1040E00021F0EB2DF0E0319602C0E0E0F0E02E0F81
:1040F0003F1FE12FF0E02E173F071CF4121B212F6A
:1041000001C020E08E2D887159F4F601822F30E233
:10411000882319F031938150FBCFC20ED11C20E0CF
:10412000992329F0D6019C93F60131966F01511124
:104130000BC0F601822F90E3882319F091938150F0
:10414000FBCFC20ED11C20E00F2D060F9A81342F19
:10415000307144FF03C0913309F40150101624F468
:10416000093018F008E001C001E0AB0177FF02C0A0
:1041700040E050E0FB01E41BF50BA1E0B0E0AC0F28
:10418000BD1FEA0FFB1F8EE2A82E4B01801A91087B
:104190000B2D10E01195019511094F3FBFEF5B0703
:1041A00021F4D601AC9211966D01641775072CF0BD
:1041B0008416950614F4818101C080E341505109B1
:1041C0003196D60111967D014017510724F0D60192
:1041D0008C936701E2CF6417750739F4963320F4A6
:1041E000953319F4311101C081E3F6018083F701A1
:1041F000822F90E2882319F091938150FBCFF70131
:10420000E20FF11D108280E090E02996ECE00C9422
:10421000CA24A0E0B0E0EFE0F1E20C94AE24EC019F
:104220006B016115710519F0FB01918380837E019B
:10423000FFEFEF1AFF0A0881802F90E00E942F23E2
:10424000892B11F0E701F3CF0D3239F47E0182E0C2
:10425000E80EF11C098111E008C00B3229F47E013F
:1042600092E0E90EF11C098110E0E701219743E09B
:1042700050E068E870E0CE010E943823892BC1F439
:10428000239645E050E063E870E0CE010E943823B9
:10429000892B09F42596C114D10419F0F601D183B4
:1042A000C0831111F6C060E070E080E89FE7FAC0BB
:1042B00043E050E060E870E0CE010E943823892B93
:1042C00059F4C114D10409F4E9C0F2E0EF0EF11C75
:1042D000F601F182E082E2C020E030E0A901C0E016
:1042E000D0E0F70180EDA82EA00E89E08A1530F10C
:1042F000912F9260B92E812F887012FF04C0811116
:1043000024C0219622C081112197A5E0B0E00E942F
:104310009D24DC01CB01880F991FAA1FBB1F9C01A4
:10432000AD012A0D311D411D511D283989E938077C
:10433000480789E1580748F0166006C09EEFA912A9
:104340000AC013FD40C01860B12E8FEFE81AF80ABA
:1043500000811B2DC6CF802F8F7D8534A1F58081F4
:104360008D3211F4106106C08B3221F0319661E07C
:1043700070E004C08181329662E070E080538A3040
:1043800018F0E61BF70B1FC060E070E060389CE09F
:1043900079075CF4DB01AA0FBB1FAA0FBB1F6A0FD2
:1043A0007B1F660F771F680F711D3196DF01119714
:1043B0008C9180538A3050F314FF03C0719561953E
:1043C0007109C60FD71F11FF08C0C114D10429F00D
:1043D000CF010197F60191838083CA01B9010E9440
:1043E0006523212F2370233019F04B015C0106C097
:1043F0004B015C01B7FAB094B7F8B09420E030E01C
:10440000A901C501B4010E946023882309F43EC0BC
:10441000D7FF06C0D195C195D1090FE910E002C0C0
:1044200007EB10E06801F8E1CF1AD10890E2E92E1D
:10443000F12CCE15DF0574F0F801259135914591E9
:104440005491C501B4010E94C6234B015C01CE19F1
:10445000DF09EFCF04501109F594E7940C151D0501
:1044600041F78A2D880F8B2D881F8F3F49F020E060
:1044700030E0A901C501B4010E946023811106C08A
:1044800082E290E09093D4058093D305C501B401F6
:1044900009C060E070E080E89FEF04C060E070E079
:1044A00080EC9FE7CDB7DEB7ECE00C94CA2428304F
:1044B00008F027E03327DA01990F311D87FD91605D
:1044C00000966105710539F432602E5F3D9330E34B
:1044D0002A95E1F708959F3F30F080387105610516
:1044E00009F03C5F3C5F3D93913008F08068911D7E
:1044F000DF93CF931F930F93FF92EF92192F987F23
:104500009695E92F96959695E90FFF27EB5EFE4F5E
:1045100099273327EE24FF24A701E701059008948B
:10452000079428F4360FE71EF81E491F511D660F29
:10453000771F881F991F0694A1F70590079428F408
:10454000E70EF81E491F561FC11D770F881F991FC0
:10455000661F0694A1F70590079428F4F80E491FEA
:10456000561FC71FD11D880F991F661F771F0694FE
:10457000A1F70590079420F4490F561FC71FD81FB5
:10458000990F661F771F881F0694A9F784911095CD
:10459000177041F0D695C79557954795F794E794CE
:1045A0001A95C1F7EBEBF0E06894159015913591F1
:1045B0006591959105907FE27395E118F10A430B9F
:1045C000560BC90BD009C0F7E10CF11E431F561F53
:1045D000C91FD01D7EF4703311F48A95E6CFE8949C
:1045E000015030F0080F0AF40027021708F4202FBA
:1045F0002395022F7A3328F079E37D932A95E9F702
:1046000010C07D932A9589F60694979567953795FE
:1046100017951794E118F10A430B560BC90BD009F3
:1046200098F023957E9173957A3308F070E37C932C
:104630002013B8F77E9170617D9330F0839571E31C
:104640007D9370E32A95E1F71124EF90FF900F918D
:104650001F91CF91DF91992787FD90950895911132
:104660000C943324803219F089508550C8F708958E
:10467000FB01DC014150504088F08D9181341CF0E9
:104680008B350CF4805E659161341CF06B350CF455
:10469000605E861B611171F3990B0895881BFCCF36
:1046A000DC01FC01672F71917723E1F7329704C099
:1046B0007C916D9370836291AE17BF07C8F3089524
:1046C0000E94A22308F481E00895E89409C097FBB2
:1046D0003EF490958095709561957F4F8F4F9F4FD9
:1046E0009923A9F0F92F96E9BB279395F69587951D
:1046F00077956795B795F111F8CFFAF4BB0F11F4E0
:1047000060FF1BC06F5F7F4F8F4F9F4F16C0882386
:1047100011F096E911C0772321F09EE8872F762FBC
:1047200005C0662371F096E8862F70E060E02AF0FD
:104730009A95660F771F881FDAF7880F96958795E9
:1047400097F90895990F0008550FAA0BE0E8FEEFBE
:1047500016161706E807F907C0F012161306E40745
:10476000F50798F0621B730B840B950B39F40A263E
:1047700061F0232B242B252B21F408950A2609F41C
:10478000A140A6958FEF811D811D08950E94D92318
:104790000C944D240E943F2438F00E94462420F0BF
:1047A000952311F00C9436240C943C2411240C9481
:1047B00081240E945E2470F3959FC1F3950F50E011
:1047C000551F629FF001729FBB27F00DB11D639FC3
:1047D000AA27F00DB11DAA1F649F6627B00DA11D69
:1047E000661F829F2227B00DA11D621F739FB00D0F
:1047F000A11D621F839FA00D611D221F749F33277F
:10480000A00D611D231F849F600D211D822F762F17
:104810006A2F11249F5750409AF0F1F088234AF0F4
:10482000EE0FFF1FBB1F661F771F881F9150504060
:10483000A9F79E3F510580F00C9436240C948124F6
:104840005F3FE4F3983ED4F3869577956795B795E7
:10485000F795E7959F5FC1F7FE2B880F911D969501
:10486000879597F9089599278827089597F99F675D
:1048700080E870E060E008959FEF80EC08950024E8
:104880000A941616170618060906089500240A94B5
:1048900012161306140605060895092E0394000C3B
:1048A00011F4882352F0BB0F40F4BF2B11F460FFCA
:1048B00004C06F5F7F4F8F4F9F4F089557FD9058F3
:1048C000440F551F59F05F3F71F04795880F97FBD4
:1048D000991F61F09F3F79F087950895121613068E
:1048E0001406551FF2CF4695F1DF08C016161706BD
:1048F0001806991FF1CF86957105610508940895F2
:10490000E894BB2766277727CB0197F90895F99993
:10491000FECF92BD81BDF89A992780B50895262FC4
:10492000F999FECF1FBA92BD81BD20BD0FB6F89494
:10493000FA9AF99A0FBE019608950E94DF24A59F66
:10494000900DB49F900DA49F800D911D112408958A
:104950002F923F924F925F926F927F928F929F928F
:10496000AF92BF92CF92DF92EF92FF920F931F937D
:10497000CF93DF93CDB7DEB7CA1BDB0B0FB6F8942E
:10498000DEBF0FBECDBF09942A88398848885F846E
:104990006E847D848C849B84AA84B984C884DF80DF
:1049A000EE80FD800C811B81AA81B981CE0FD11DC3
:1049B0000FB6F894DEBF0FBECDBFED010895A29FE4
:1049C000B001B39FC001A39F700D811D1124911DE3
:1049D000B29F700D811D1124911D089597FB072E24
:1049E00016F4009407D077FD09D00E94502507FCEB
:1049F00005D03EF4909581959F4F089570956195EF
:104A00007F4F0895A1E21A2EAA1BBB1BFD010DC00A
:104A1000AA1FBB1FEE1FFF1FA217B307E407F5076E
:104A200020F0A21BB30BE40BF50B661F771F881F4A
:104A3000991F1A9469F760957095809590959B01E0
:104A4000AC01BD01CF010895052E97FB1EF4009423
:104A50000E943B2557FD07D00E94022507FC03D08A
:104A60004EF40C943B2550954095309521953F4F41
:104A70004F4F5F4F089590958095709561957F4F4A
:104A80008F4F9F4F0895EE0FFF1F0590F491E02D7B
:104A900009940E94DF24B7FF0895821B930B0895A9
:104AA000AA1BBB1B51E107C0AA1FBB1FA617B70754
:104AB00010F0A61BB70B881F991F5A95A9F7809570
:104AC0009095BC01CD0108955058BB27AA270E949C
:104AD0007C250C944D240E943F2438F00E944624EB
:104AE00020F039F49F3F19F426F40C943C240EF482
:104AF000E095E7FB0C943624E92F0E945E2458F3DE
:104B0000BA17620773078407950720F079F4A6F5B2
:104B10000C9480240EF4E0950B2EBA2FA02D0B01DF
:104B2000B90190010C01CA01A0011124FF27591BF2
:104B300099F0593F50F4503E68F11A16F040A22FF8
:104B4000232F342F4427585FF3CF46953795279569
:104B5000A795F0405395C9F77EF41F16BA0B620B68
:104B6000730B840BBAF09150A1F0FF0FBB1F661FAF
:104B7000771F881FC2F70EC0BA0F621F731F841FF2
:104B800048F4879577956795B795F7959E3F08F018
:104B9000B0CF9395880F08F09927EE0F97958795DA
:104BA00008950E94E5250C944D240E94462458F057
:104BB0000E943F2440F029F45F3F29F00C943624F2
:104BC00051110C9481240C943C240E945E2468F3BF
:104BD0009923B1F3552391F3951B550BBB27AA27B6
:104BE00062177307840738F09F5F5F4F220F331FF0
:104BF000441FAA1FA9F335D00E2E3AF0E0E832D0B8
:104C000091505040E695001CCAF72BD0FE2F29D0BA
:104C1000660F771F881FBB1F261737074807AB078C
:104C2000B0E809F0BB0B802DBF01FF2793585F4F01
:104C30003AF09E3F510578F00C9436240C94812470
:104C40005F3FE4F3983ED4F3869577956795B795E3
:104C5000F7959F5FC9F7880F911D9695879597F9EE
:104C60000895E1E0660F771F881FBB1F6217730767
:104C70008407BA0720F0621B730B840BBA0BEE1F7C
:104C800088F7E09508950E94662488F09F5798F071
:104C9000B92F9927B751B0F0E1F0660F771F881F41
:104CA000991F1AF0BA95C9F714C0B13091F00E945B
:104CB0008024B1E008950C948024672F782F8827F2
:104CC000B85F39F0B93FCCF3869577956795B39582
:104CD000D9F73EF490958095709561957F4F8F4FF1
:104CE0009F4F08950E94A22308F48FEF08950E9419
:104CF000A223880B990B08950F931F93CF93DF93F3
:104D00008230910510F482E090E0E091D705F091B7
:104D1000D80520E030E0A0E0B0E0309719F1408104
:104D200051810281138148175907C8F084179507EC
:104D300069F4109731F012960C93129713961C9306
:104D400027C00093D7051093D80522C0211531053F
:104D500019F04217530718F49A01BD01EF01DF0162
:104D6000F801DBCF21153105F9F0281B390B243070
:104D7000310580F48A819B816115710521F0FB0169
:104D80009383828304C09093D8058093D705FE0156
:104D9000329644C0FE01E20FF31F8193919322509B
:104DA0003109398328833AC02091D5053091D60541
:104DB000232B41F42091190130911A013093D6052B
:104DC0002093D50520911701309118012115310547
:104DD00041F42DB73EB740911B0150911C01241B9B
:104DE000350BE091D505F091D605E217F307A0F455
:104DF0002E1B3F0B2817390778F0AC014E5F5F4F31
:104E00002417350748F04E0F5F1F5093D605409387
:104E1000D5058193919302C0E0E0F0E0CF01DF91EE
:104E2000CF911F910F910895CF93DF93009709F4CD
:104E300081C0FC01329713821282A091D705B091F4
:104E4000D805109781F420813181820F931F209122
:104E5000D5053091D6052817390751F5F093D605B9
:104E6000E093D50567C0ED0120E030E0CE17DF0705
:104E700040F44A815B819E0141155105F1F0EA0140
:104E8000F5CFD383C28340815181840F951FC8170A
:104E9000D90759F488819981840F951F02969183CF
:104EA00080838A819B81938382832115310529F434
:104EB000F093D805E093D7053DC0E901FB83EA8371
:104EC00049915991C40FD51FEC17FD0761F48081FA
:104ED0009181840F951F0296E901998388838281CD
:104EE00093819B838A83E0E0F0E012968D919C9100
:104EF0001397009719F0FD01DC01F7CF8D919C917C
:104F000011979D012E5F3F4F820F931F2091D50572
:104F10003091D6052817390769F4309729F4109293
:104F2000D8051092D70502C013821282B093D6051D
:104F3000A093D505DF91CF910895A0E0B0E0E3EA1A
:104F4000F7E20C94AC24EC01009721F4CB010E9411
:104F50007C26B4C0FC01E60FF71F9C0122503109EA
:104F6000E217F30708F4A8C0D9010D911C9111971D
:104F700006171707B0F00530110508F49BC0C801EB
:104F800004978617970708F495C002501109061B6D
:104F9000170B019311936D937C93CF010E941427FB
:104FA00089C05B01A01AB10A4C01800E911EA0912C
:104FB000D705B091D805612C712CE12CF12C1097FC
:104FC00009F446C08D919C911197A815B905B1F5CA
:104FD0006C0142E0C40ED11CCA14DB0478F14C0110
:104FE0008A189B08640142E0C40ED11C1296BC9042
:104FF00012971396AC91B5E0CB16D10440F0B28273
:10500000A38391828082D9016D937C9309C00E5F46
:105010001F4F800F911FF90191838083EB2DFA2F91
:10502000E114F10431F0D7011396FC93EE9312973B
:1050300041C0F093D805E093D7053CC068167906C7
:1050400008F43C017D0112960D90BC91A02DB7CFC4
:105050008091D5059091D60588169906E1F46616DB
:105060007706C8F48091170190911801009741F4D8
:105070008DB79EB740911B0150911C01841B950B6D
:10508000E817F907C8F4F093D605E093D505F901C0
:10509000718360830FC0CB010E947C267C01009746
:1050A00059F0A801BE010E946828CE010E94142771
:1050B000C70104C0CE0102C080E090E0CDB7DEB7EA
:1050C000EEE00C94C82481E090E0F8940C94B528AC
:1050D000FB01DC0102C001900D9241505040D8F715
:1050E0000895FC018191861721F08823D9F799272B
:1050F00008953197CF010895FB01DC018D91019056
:1051000080190110D9F3990B0895FB01DC0101907E
:105110000D920020E1F70895FB01DC014150504061
:1051200048F001900D920020C9F701C01D92415036
:105130005040E0F70895FB0151915523A9F0BF01BC
:10514000DC014D9145174111E1F759F4CD01019072
:10515000002049F04D9140154111C9F3FB01411167
:10516000EFCF81E090E00197089511E0CFE4D1E026
:1051700004C0FE010E9443252196C035D107C9F71E
:04518000F894FFCFD1
:1051840001E8030000694661726D20322E342E312D
:10519400000EFF010000000000D90520000E0F10D2
:1051A4000200030009000A000B000C000D000E00B1
:1051B4000F0010001200130000000000860FF30E11
:1051C4001D0FD30F4E0F2C0F400F000000004A108C
:1051D4003F105B103110381035103210556E6B6E65
:1051E4006F776E2070696E206D6F6465004F4B00A1
:1051F4002C6D6F64656C2C73656E736F725F74795C
:1052040070652C6C6F77426F756E646172792C686F
:10521400696768426F756E646172792C636C65614D
:105224006E2C73656E736F722C636F6E74726F6C19
:105234006C65722C70756D702C75702C646F776E44
:105244002C73686F772C726566726573682C000D19
:105254000A002F55736572732F63656E67797563E2
:1052640068656E672F446F63756D656E74732F6B1D
:10527400696E676B69742E636F64652F6167726909
:105284002D6B69742D6669726D776172652F6D611E
:10529400696E2F7372632F53616E64617264466921
:1052A400726D6174612E696E6F0030303000313080
:1052B400310032303100323032003130320031309E
:1052C4003300323033003230340031303400323085
:1052D4003500323036003230370032303800313069
:1052E400350035333300353334003230390020286B
:1052F40044656320313220323032332031323A3542
:10530400383A313829202F204D6F64656C203A20BB
:105314004D006162636465666768696A6B6D6E708F
:1053240072737475767778794142434445464748A9
:105334004A4B4C4D4E50515253545556575859326E
:105344003334353738006E616E00696E66006F76EF
:1053540066002C30002C756E7361766564002C69D0
:105364006E666F2C4D002C696E666F2C4D3030309C
:025374002C000B
:00000001FF
